:020000020000FC
:1020000007EB0093E50000E10093E6000FE000938A
:10201000E70000E80093E40008950F921F920F93E9
:102020001F932F933F93AF93BF93EF93FF93125060
:10203000003209F40CE20A52000F000FE2E8F0E26D
:102040000024E00FF01DACEEBB27212F1695A10F49
:1020500034E000EF20FD0295059020FD02941C90D5
:10206000102210281C9215963A95B1F7FF91EF9126
:10207000BF91AF913F912F911F910F911F900F90A2
:102080000895080A0A0E00080A0200000000000075
:102090000A0001050A0008000004090505050801F9
:1020A000010001010E0101010B0100050B000104FB
:1020B0000B0101040F010101010001050F010105E0
:1020C0000B010002000400000000080000080000EE
:1020D0000A010002000400000000000000000105E9
:1020E0000F000109090301040401010901030104AE
:1020F0000E0101040E0001040D0100050F0000088F
:102100000002000105010804060800040401080794
:102110000500000705080105050101050E00010580
:10212000050901050E080102000901080002000569
:102130000501080404040005050C0802000C08024F
:102140000002090000050104040100020008010169
:0E21500001010000000000000001090F0F0F48
:040000000C947700E5
:100014000C940C0061E0C03021F45093B2000E94B3
:10002400140018957395743661E011F40E941B0056
:10003400089570E0839561E08C3311F40E942300ED
:10004400089580E093950895A0E00A3020F0A395E8
:100054000A500C9427000895072F0E94260017E0E9
:100064000B0F0E940D100A2F16E00B0F0E940D10AB
:100074000895082F0E94260015E00B0F0E940D1012
:100084000A2F14E00B0F0E940D100895092F0E94EF
:10009400260013E00B0F0E940D100A2F12E00B0F25
:1000A4000E940D100895D4FF0E945D00D7FFC1E0A7
:1000B400D6FFC0E00895F89400E370E080E090E09B
:1000C400C1E012E00E940D1013E00E940D1014E034
:1000D4000E940D1015E00E940D1016E00E940D10F4
:1000E40017E00E940D1078940895F89455E1509308
:1000F400B2000FEF0DBF04E00EBF0E94001008E035
:100104000093B60001E00093700002E00093B00099
:1001140057ED60E070E080E090E0B0E3C0E001E023
:100124000093F40000E312E00E940D1013E00E941B
:100134000D1014E00E940D1015E00E940D1016E041
:100144000E940D1017E00E940D10EDB1E37FDEB1A7
:10015400DC60EDB9DEB9D0E0D0937F00E4B1EF729A
:10016400D5B1D06DE4B9D5B9F0E05093B20078942C
:10017400DCB1E3B1DC70E07DDE2BDF130E945500BF
:10018400FD2F613031F40E9448000E943B000E9420
:0A0194002E0060E00C94BA00FFCFCB
:00000001FF
